{
    "_format": "hh-sol-artifact-1",
    "contractName": "Trasactions",
    "sourceName": "contracts/Trasactions.sol",
    "abi": [
        {
            "anonymous": false,
            "inputs": [
                {
                    "indexed": false,
                    "internalType": "address",
                    "name": "from",
                    "type": "address"
                },
                {
                    "indexed": false,
                    "internalType": "address",
                    "name": "receiver",
                    "type": "address"
                },
                {
                    "indexed": false,
                    "internalType": "uint256",
                    "name": "amount",
                    "type": "uint256"
                },
                {
                    "indexed": false,
                    "internalType": "string",
                    "name": "message",
                    "type": "string"
                },
                {
                    "indexed": false,
                    "internalType": "uint256",
                    "name": "timestamp",
                    "type": "uint256"
                },
                {
                    "indexed": false,
                    "internalType": "string",
                    "name": "keyword",
                    "type": "string"
                }
            ],
            "name": "Transfer",
            "type": "event"
        },
        {
            "inputs": [],
            "name": "AddToBlockChain",
            "outputs": [],
            "stateMutability": "nonpayable",
            "type": "function"
        },
        {
            "inputs": [],
            "name": "GetAllTrasaction",
            "outputs": [
                {
                    "components": [
                        {
                            "internalType": "address",
                            "name": "sender",
                            "type": "address"
                        },
                        {
                            "internalType": "address",
                            "name": "receiver",
                            "type": "address"
                        },
                        {
                            "internalType": "uint256",
                            "name": "amount",
                            "type": "uint256"
                        },
                        {
                            "internalType": "string",
                            "name": "message",
                            "type": "string"
                        },
                        {
                            "internalType": "uint256",
                            "name": "timestamp",
                            "type": "uint256"
                        },
                        {
                            "internalType": "string",
                            "name": "keyword",
                            "type": "string"
                        }
                    ],
                    "internalType": "struct Trasactions.TransferStructure[]",
                    "name": "",
                    "type": "tuple[]"
                }
            ],
            "stateMutability": "view",
            "type": "function"
        },
        {
            "inputs": [],
            "name": "getTrasactionCount",
            "outputs": [
                {
                    "internalType": "uint256",
                    "name": "",
                    "type": "uint256"
                }
            ],
            "stateMutability": "view",
            "type": "function"
        }
    ],
    "bytecode": "0x608060405234801561001057600080fd5b5061035f806100206000396000f3fe608060405234801561001057600080fd5b50600436106100415760003560e01c80630c97a97f1461004657806320190a5914610064578063f7e726b114610082575b600080fd5b61004e61008c565b60405161005b9190610217565b60405180910390f35b61006c610091565b6040516100799190610239565b60405180910390f35b61008a610096565b005b606090565b600090565b565b60006100a48383610169565b905092915050565b6100b5816102a9565b82525050565b60006100c682610264565b6100d08185610287565b9350836020820285016100e285610254565b8060005b8581101561011e57848403895281516100ff8582610098565b945061010a8361027a565b925060208a019950506001810190506100e6565b50829750879550505050505092915050565b600061013b8261026f565b6101458185610298565b93506101558185602086016102e5565b61015e81610318565b840191505092915050565b600060c08301600083015161018160008601826100ac565b50602083015161019460208601826100ac565b5060408301516101a760408601826101f9565b50606083015184820360608601526101bf8282610130565b91505060808301516101d460808601826101f9565b5060a083015184820360a08601526101ec8282610130565b9150508091505092915050565b610202816102db565b82525050565b610211816102db565b82525050565b6000602082019050818103600083015261023181846100bb565b905092915050565b600060208201905061024e6000830184610208565b92915050565b6000819050602082019050919050565b600081519050919050565b600081519050919050565b6000602082019050919050565b600082825260208201905092915050565b600082825260208201905092915050565b60006102b4826102bb565b9050919050565b600073ffffffffffffffffffffffffffffffffffffffff82169050919050565b6000819050919050565b60005b838110156103035780820151818401526020810190506102e8565b83811115610312576000848401525b50505050565b6000601f19601f830116905091905056fea26469706673582212208d25dc5fd4eeb81798a85a7229e01e436697ed95ea4f25ada739ee0eb318043a64736f6c63430008000033",
    "linkReferences": {},
    "deployedLinkReferences": {}
}